:100000000C942A000C943F000C943F000C943F0089
:100010000C943F000C943F000C943F000C943F0064
:100020000C943F000C943F000C943F000C943F0054
:100030000C943F000C943F000C943F000C943F0044
:100040000C943F000C943F000C943F000C943F0034
:100050000C943F0011241FBECFE5D8E0DEBFCDBF1A
:1000600010E0A0E6B0E0EAEDF9E002C005900D92E4
:10007000A836B107D9F70E9457040C94EB040C94EE
:100080000000CF93DF93CDB7DEB78AE390E0FC01A9
:1000900010828BE390E0FC01108289E390E0FC0188
:1000A000108287E390E0FC01108288E390E0FC017D
:1000B000108286E390E0FC01108284E390E0FC0172
:1000C000108285E390E0FC01108283E390E0FC0164
:1000D000108281E390E02FEFFC01208382E390E027
:1000E0002FE1FC01208380E390E0FC0110820000FE
:1000F000DF91CF910895CF93DF9300D00F92CDB7CA
:10010000DEB78A836B8381E089838A81803208F03D
:10011000CAC08B81882F90E0009721F0019709F4E5
:1001200065C0BEC08A81883098F48AE390E0FC0103
:100130008081282F8A81882F90E0805A9F4FFC0170
:100140008081809528238AE390E0FC012083ADC064
:100150008A818830B0F08A81803198F487E390E01A
:10016000FC018081282F8A81882F90E0805A9F4F40
:10017000FC0180818095282387E390E0FC012083A7
:1001800034C08A818031B0F08A81883198F484E368
:1001900090E0FC018081282F8A81882F90E0805A8E
:1001A0009F4FFC0180818095282384E390E0FC012F
:1001B00020831BC08A81883108F477C08A8180320D
:1001C00008F073C081E390E0FC018081282F8A81D0
:1001D000882F90E0805A9F4FFC01808180952823D2
:1001E00081E390E0FC01208360C05FC08A81883099
:1001F00088F48AE390E0FC0130818A81882F90E0C6
:10020000805A9F4FFC0120818AE390E0232BFC0160
:1002100020834DC08A818830A0F08A81803188F4A3
:1002200087E390E0FC0130818A81882F90E0805A3A
:100230009F4FFC01208187E390E0232BFC0120836A
:100240002EC08A818031A0F08A81883188F484E3CD
:1002500090E0FC0130818A81882F90E0805A9F4F86
:10026000FC01208184E390E0232BFC01208317C054
:100270008A818831E0F08A818032C8F481E390E09D
:10028000FC0130818A81882F90E0805A9F4FFC01C9
:10029000208181E390E0232BFC01208308C007C06C
:1002A0001982000005C0198203C0000001C00000CF
:1002B00089810F900F900F90DF91CF910895CF9388
:1002C000DF9300D00F92CDB7DEB78A836B8381E0D6
:1002D00089838A81803208F0CBC08B81882F90E09F
:1002E000009721F0019709F465C0C0C08A81883069
:1002F00098F48BE390E0FC018081282F8A81882F7D
:1003000090E0805A9F4FFC018081809528238BE3E9
:1003100090E0FC012083AEC08A818830B0F08A81F1
:10032000803198F488E390E0FC018081282F8A8155
:10033000882F90E0805A9F4FFC0180818095282370
:1003400088E390E0FC01208334C08A818031B0F0E2
:100350008A81883198F485E390E0FC018081282F20
:100360008A81882F90E0805A9F4FFC018081809580
:10037000282385E390E0FC0120831BC08A8188311B
:1003800008F478C08A81803208F074C082E390E07B
:10039000FC018081282F8A81882F90E0805A9F4F0E
:1003A000FC0180818095282382E390E0FC0120837A
:1003B00061C060C08A81883088F48BE390E0FC01E2
:1003C00030818A81882F90E0805A9F4FFC012081E4
:1003D0008BE390E0232BFC0120834EC08A81883080
:1003E000A0F08A81803188F488E390E0FC013081BC
:1003F0008A81882F90E0805A9F4FFC01208188E3FA
:1004000090E0232BFC01208330C08A818031A0F052
:100410008A81883188F485E390E0FC0130818A810B
:10042000882F90E0805A9F4FFC01208185E390E067
:10043000232BFC01208319C08A818831E8F08A814E
:100440008032D0F482E390E0FC0130818A81882FF1
:1004500090E087709927805A9F4FFC01208182E3AA
:1004600090E0232BFC01208307C006C0198205C041
:10047000198203C0000001C0000089810F900F9015
:100480000F90DF91CF910895CF93DF9300D000D0EC
:10049000CDB7DEB78A837C836B8381E089838A81D1
:1004A000803208F060C08B819C81892B09F45BC08D
:1004B0008A81883088F489E390E0FC0120818A8178
:1004C000882F90E0805A9F4FFC01808128238B81E8
:1004D0009C81FC01208344C08A818830A0F08A81FD
:1004E000803188F486E390E0FC0120818A81882FA6
:1004F00090E0805A9F4FFC01808128238B819C8152
:10050000FC0120832DC08A818031A0F08A8188314E
:1005100088F483E390E0FC0120818A81882F90E0B9
:10052000805A9F4FFC01808128238B819C81FC0194
:10053000208316C08A81883198F08A81803280F4C5
:1005400080E390E0FC0120818A81882F90E0805A2E
:100550009F4FFC01808128238B819C81FC0120839B
:1005600081E0898301C0198289810F900F900F90DB
:100570000F90DF91CF910895CF93DF9300D00F922A
:10058000CDB7DEB78A836B8381E089838A8184302B
:1005900008F04FC08B81882F90E0009721F08F3FAB
:1005A000910509F144C08A81882329F48AE390E007
:1005B000FC01108240C08A81813029F487E390E0F9
:1005C000FC01108238C08A81823029F484E390E0F3
:1005D000FC01108230C08A81833069F581E390E0AC
:1005E000FC01108228C08A81882331F48AE390E0DC
:1005F00021E0FC01208321C08A81813031F487E32E
:1006000090E021E0FC01208318C08A81823031F41F
:1006100084E390E021E0FC0120830FC08A818330D5
:1006200061F481E390E021E0FC01208306C019829F
:1006300005C0198203C0000001C0000089810F902D
:100640000F900F90DF91CF910895CF93DF9300D05B
:100650000F92CDB7DEB78A836B8381E089838A816D
:10066000843008F04FC08B81882F90E0009721F0F4
:100670008F3F910509F144C08A81882329F48BE3D7
:1006800090E0FC01108240C08A81813029F488E327
:1006900090E0FC01108238C08A81823029F485E321
:1006A00090E0FC01108230C08A81833069F582E3DA
:1006B00090E0FC01108228C08A81882331F48BE30A
:1006C00090E021E0FC01208321C08A81813031F457
:1006D00088E390E021E0FC01208318C08A81823009
:1006E00031F485E390E021E0FC0120830FC08A8192
:1006F000833061F482E390E021E0FC01208306C0B6
:10070000198205C0198203C0000001C00000898160
:100710000F900F900F90DF91CF910895CF93DF93BB
:1007200000D000D0CDB7DEB78A837C836B8381E0B5
:1007300089838A818032B0F58B819C81892B91F1EC
:100740008A81882349F489E390E0FC0120818B8130
:100750009C81FC01208323C08A81813049F486E397
:1007600090E0FC0120818B819C81FC01208317C0DB
:100770008A81823049F483E390E0FC0120818B81FF
:100780009C81FC0120830BC08A81882341F480E393
:1007900090E0FC0120818B819C81FC01208381E021
:1007A000898301C0198289810F900F900F900F905B
:1007B000DF91CF910895CF93DF93CDB7DEB72A971E
:1007C0000FB6F894DEBF0FBECDBF9A8789871D8212
:1007D0001E821F82188628C019821A821B821C82E0
:1007E0000FC0000000000000000089819A81AB81E9
:1007F000BC810196A11DB11D89839A83AB83BC8303
:1008000089819A81AB81BC81803D9105A105B105AB
:1008100040F38D819E81AF81B8850196A11DB11DE8
:100820008D839E83AF83B88789859A85CC01A0E0AC
:10083000B0E02D813E814F815885281739074A073E
:100840005B0750F200002A960FB6F894DEBF0FBE89
:10085000CDBFDF91CF910895CF93DF9300D000D02B
:10086000CDB7DEB79C838B838B819C8145979C01A0
:10087000A9E8B8E80E94DC04969587959695879537
:10088000969587959A83898306C0000089819A810D
:1008900001979A83898389819A81892BB1F7000016
:1008A0000F900F900F900F90DF91CF910895CF93FD
:1008B000DF93CDB7DEB76FEF83E00E94BC0261E04B
:1008C00088E10E945F0184EF91E00E94DB0360E019
:1008D00088E10E945F0184EF91E00E94DB0361E008
:1008E00089E10E945F0184EF91E00E94DB0360E0F8
:1008F00089E10E945F0184EF91E00E94DB0361E0E7
:100900008AE10E945F0184EF91E00E94DB0360E0D6
:100910008AE10E945F0184EF91E00E94DB0361E0C5
:100920008BE10E945F0184EF91E00E94DB0360E0B5
:100930008BE10E945F0184EF91E00E94DB0361E0A4
:100940008CE10E945F0184EF91E00E94DB0360E094
:100950008CE10E945F0184EF91E00E94DB0361E083
:100960008DE10E945F0184EF91E00E94DB0360E073
:100970008DE10E945F0184EF91E00E94DB0361E062
:100980008EE10E945F0184EF91E00E94DB0360E052
:100990008EE10E945F0184EF91E00E94DB0361E041
:1009A0008FE10E945F0184EF91E00E94DB0360E031
:1009B0008FE10E945F0183CFA29FB001B39FC0016E
:1009C000A39F700D811D1124911DB29F700D811D7B
:0A09D0001124911D0895F894FFCF43
:0809DA00010204081020408016
:00000001FF
